:100000000C946C000C9494000C9494000C940106D5
:100010000C9401060C9401060C9494000C9494002A
:100020000C9494000C9494000C9494000C94940000
:100030000C9494000C9494000C9494000C949400F0
:100040000C941D030C9494000C94FD010C94D701A6
:100050000C9494000C9494000C9494000C949400D0
:100060000C9494000C949400B606BD06C906DA06FA
:10007000DC06E306EF06000716071807000000007D
:10008000250028002B0000000008000201000003EA
:100090000407000000000000000000000000240031
:1000A00027002A0000000000230026002900040485
:1000B0000404040404040202020202020303030310
:1000C00003030102040810204080010204081020EC
:1000D000010204081020500C11241FBECFEFD8E0FD
:1000E000DEBFCDBF22E0AAE8B1E001C01D92AC3B6B
:1000F000B207E1F711E0A0E0B1E0E8E9FDE102C0FC
:1001000005900D92AA38B107D9F710E0CCE6D0E0FF
:1001100004C02197FE010E94AB0ECB36D107C9F770
:100120000E94F0090C94CA0E0C940000FC01538D3F
:10013000448D252F30E0842F90E0821B930B5417C1
:1001400010F0CF96089501970895FC01918D828D4E
:10015000981761F0828DDF01A80FB11D5D968C911B
:10016000928D9F5F9F73928F90E008958FEF9FEF26
:100170000895FC01918D828D981731F0828DE80FE2
:10018000F11D858D90E008958FEF9FEF0895FC019C
:10019000918D228D892F90E0805C9F4F821B910969
:1001A0008F739927089588E991E00E94C70021E0A4
:1001B000892B09F420E0822F0895FC01848DDF0152
:1001C000A80FB11DA35ABF4F2C91848D90E00196CA
:1001D0008F739927848FA689B7892C93A089B189B9
:1001E0008C9180648C93938D848D981306C00288C3
:1001F000F389E02D80818F7D80830895EF92FF92B7
:100200000F931F93CF93DF93EC0181E0888F9B8D39
:100210008C8D981305C0E889F989808185FD24C0FB
:10022000F62E0B8D10E00F5F1F4F0F731127E02E7E
:100230008C8DE8120CC00FB607FCFACFE889F9895B
:10024000808185FFF5CFCE010E94DD00F1CF8B8D3F
:10025000FE01E80FF11DE35AFF4FF0820B8FEA8990
:10026000FB898081806207C0EE89FF896083E8890D
:10027000F98980818064808381E090E0DF91CF9173
:100280001F910F91FF90EF900895CF93DF93EC01B2
:10029000888D8823C9F0EA89FB89808185FD05C0A6
:1002A000A889B9898C9186FD0FC00FB607FCF5CFE0
:1002B000808185FFF2CFA889B9898C9185FFEDCF28
:1002C000CE010E94DD00E7CFDF91CF91089580E05D
:1002D00090E0892B29F00E94D30081110C9400003A
:1002E0000895833081F028F4813099F08230A1F0B4
:1002F00008958730A9F08830B9F08430D1F4809126
:1003000080008F7D03C0809180008F778093800074
:10031000089584B58F7702C084B58F7D84BD08951C
:100320008091B0008F7703C08091B0008F7D809363
:10033000B0000895CF93DF93282F30E0F901EA57FA
:10034000FF4F8491F901EE53FF4FD491F901E2552B
:10035000FF4FC491CC2391F081110E947101EC2FC9
:10036000F0E0EE0FFF1FEC55FF4FA591B491EC911B
:10037000ED2381E090E021F480E002C080E090E095
:10038000DF91CF910895DC01ED91FD91BD010190C8
:10039000F081E02D40E0099591E0811190E0892FF6
:1003A0000895089580E090E008950E94C50E1F9280
:1003B0000F920FB60F9211242F933F934F935F9399
:1003C0006F937F938F939F93AF93BF93EF93FF931D
:1003D00088E991E00E94DD00FF91EF91BF91AF911C
:1003E0009F918F917F916F915F914F913F912F914D
:1003F0000F900FBE0F901F9018951F920F920FB67F
:100400000F9211242F938F939F93EF93FF93E0917B
:10041000A801F091A9018081E091AE01F091AF01B6
:1004200082FD12C090818091B1018F5F8F73209106
:10043000B201821751F0E091B101F0E0E856FE4FB1
:10044000958F8093B10101C08081FF91EF919F91C1
:100450008F912F910F900FBE0F901F9018951F93A3
:10046000CF93DF93282F30E0F901EA57FF4F8491B3
:10047000F901EE53FF4FD491F901E255FF4FC491BA
:10048000CC23C9F0162F81110E947101EC2FF0E0EE
:10049000EE0FFF1FE458FF4FA591B4918FB7F8946A
:1004A000111105C09C91ED2FE095E92302C0EC915C
:1004B000ED2BEC938FBFDF91CF911F910895CF93D8
:1004C000DF9390E0FC01EE53FF4F2491FC01E255D5
:1004D000FF4F8491882361F190E0880F991FFC0100
:1004E000E656FF4FC591D491FC01E458FF4FA5910A
:1004F000B491611109C09FB7F89488812095822337
:100500008883EC912E230BC0623061F49FB7F8947E
:100510003881822F809583238883EC912E2B2C9316
:100520009FBF06C08FB7F894E8812E2B28838FBF1A
:10053000DF91CF9108953FB7F89480918D0190910C
:100540008E01A0918F01B091900126B5A89B05C0A6
:100550002F3F19F00196A11DB11D3FBFBA2FA92F42
:10056000982F8827820F911DA11DB11DBC01CD01BF
:1005700042E0660F771F881F991F4A95D1F70895AB
:100580008F929F92AF92BF92CF92DF92EF92FF92A3
:100590006B017C010E949B024B015C01C114D104E0
:1005A000E104F104F1F00E949B02DC01CB01881907
:1005B0009909AA09BB09883E9340A105B10570F3CA
:1005C00021E0C21AD108E108F10888EE880E83E024
:1005D000981EA11CB11CC114D104E104F10419F747
:1005E000DDCFFF90EF90DF90CF90BF90AF909F90C6
:1005F0008F9008958CE191E00E94980980E094E04A
:100600000E94DF0860ED77E080E090E00E94C00289
:1006100010929301089587E291E00E94980980E08A
:100620009CEF0E94DF0860ED77E080E090E00E94A0
:10063000C00281E08093930108951F920F920FB63C
:100640000F9211242F933F938F939F93AF93BF9358
:100650008091940190919501A0919601B09197019C
:1006600030918C0123E0230F2D3720F40196A11D3A
:10067000B11D05C026E8230F0296A11DB11D2093D0
:100680008C018093940190939501A0939601B0936F
:10069000970180918D0190918E01A0918F01B09171
:1006A00090010196A11DB11D80938D0190938E0143
:1006B000A0938F01B0939001BF91AF919F918F91C3
:1006C0003F912F910F900FBE0F901F901895089596
:1006D0008EBD00000DB407FEFDCF8EB508958CBD14
:1006E0009DBD08951F93CF93DF93EC01162F8A8948
:1006F0009B890E946F0360E08E850E942F02812FEC
:1007000080680E94680380E00E946803182F61E0FF
:100710008E850E942F02812FDF91CF911F91089526
:10072000EF92FF921F93CF93DF931F92CDB7DEB767
:100730007C01162FFC018289938949830E946F03F3
:1007400060E0F70186850E942F02812F0E946803D6
:100750004981842F0E94680361E0F70186850F902C
:10076000DF91CF911F91FF90EF900C942F028F9209
:100770009F92AF92CF92EF92FF920F931F93CF93DE
:10078000DF9300D000D01F92CDB7DEB74C0182E0DE
:100790008D8340E064E2C4010E94900340E066E281
:1007A000C4010E94900346E268E4C4010E949003E1
:1007B00086E28C838D81823040F16CE1C4010E941D
:1007C0007203482F4F776CE1C4010E94900387E0C9
:1007D0008B83A12CC12CCE0103967C018E010B5F73
:1007E0001F4F9E012F5F3F4F41E0BE016C5F7F4F67
:1007F000C4010E94720781110BC08D81823039F4CF
:1008000081E09B81911104C008C084E001C081E0B7
:1008100091E0823019F090E001C091E0892F0F90B3
:100820000F900F900F900F90DF91CF911F910F912C
:10083000FF90EF90CF90AF909F908F900895CF92C0
:10084000DF92EF92FF920F931F93CF93DF93EC0110
:100850006B01142F790140E062E00E94900344E0B4
:100860006AE0CE010E94900340E864E1CE010E945C
:100870009003A601612FCE010E94360743E062E09B
:10088000CE010E94900308E813E16AE0CE010E94C5
:10089000720382FF13C040E062E0CE010E94900329
:1008A00064E4CE010E947203F701808362E4CE010A
:1008B0000E947203F701818380E004C00150110996
:1008C00021F783E0DF91CF911F910F91FF90EF907F
:1008D000DF90CF9008952F923F924F925F926F9248
:1008E0007F928F929F92AF92BF92CF92DF92EF92C0
:1008F000FF920F931F93CF93DF93CDB7DEB72D9762
:100900000FB6F894DEBF0FBECDBF413508F010C161
:10091000342E3B014C016CE10E947203482F4F774B
:100920006CE1C4010E949003BB24B39422E0B21690
:1009300091F033E0B316E1F041E0B412FDC083E979
:1009400089833320D1F081E0F3019081953008F460
:1009500080E0D12C17C085E98983332081F081E0C4
:10096000F3019081983008F480E053E0D52E0AC05E
:1009700087E9898346E0D42E04C0D12C02C033E03D
:10098000D32E80E0532DF8EFDF9E500D112457FD3C
:1009900050E0882321F098E89B8343E001C042E0C7
:1009A00021E0952F977009F420E0952F9595959566
:1009B0009595290F21F4882311F1585F20C08111EA
:1009C00002C094E001C093E0291708F4922F20E0C0
:1009D00030E06D2D70E0E42FE20FA1E0B0E0AC0F4D
:1009E000BD1FAE0FB11DF901E60FF71FE60DF71D94
:1009F000E181EC932F5F3F4F291768F3DCCF23E0B1
:100A0000222E5032FCF020E72A839C818B8189279B
:100A10009D8189279E8189278F839E01285F3F4F73
:100A200047E0BE016F5F7F4FC4015D870E941F04D6
:100A30005D858111CDC01B862A86CE0107962C01CB
:100A400079E01EC0952F97709B87252F25952595BA
:100A5000259582E0820F392FE0E18E9F300D112421
:100A60003A8371E0911101C070E0780F44244394FF
:100A7000512C4C0E5D1E480E511C87E0821B8A874C
:100A8000CB844C2D4295407F4C0D6AE1C4015D87BB
:100A90007C870E949003A12C9E01255F3F4F790126
:100AA0008E01065F1F4F92017C85472FBE016F5F4D
:100AB0007F4FC4010E9472075D85823099F56CE119
:100AC000C4010E9472035D8585FD34C08F7109F4F5
:100AD00080E2282F30E0452F550F550B4217530762
:100AE0005CF5582FC90101978770992725952595A1
:100AF000259531E0320F21E0009709F420E0230F23
:100B0000E1E0F0E0EC0FFD1FE20FF11D21E030E02D
:100B100002C0220F331F8A95E2F7C9019081892B09
:100B200080836FCF811154C0503244F450E26BCFB8
:100B300086E04EC082E04CC085E04AC08B81883898
:100B400009F043C033E023E080E090E06D2D70E0D9
:100B5000FC01E60FF71FE60DF71D432F480FA1E03C
:100B6000B0E0AC0FBD1FA40FB11D4C9141830196A5
:100B7000821770F38A85833021F58B85811121C01E
:100B80009E012D5F3F4F41E0B201C4010E941F044E
:100B900081111EC09B81F2018181981314C09C8138
:100BA0008281981310C0808182FF02C0B394BECEB0
:100BB000F30183878B2D880FB80EB394B08280E049
:100BC00007C081E005C087E003C032E024E0BCCF6D
:100BD0002D960FB6F894DEBF0FBECDBFDF91CF913B
:100BE0001F910F91FF90EF90DF90CF90BF90AF904B
:100BF0009F908F907F906F905F904F903F902F903D
:100C000008951F920F920FB60F9211240F900FBEEE
:100C10000F901F901895CF92DF92EF92FF920F9353
:100C20001F93CF93DF936C017A018B01C0E0D0E07A
:100C3000CE15DF0589F0D8016D918D01D601ED91BA
:100C4000FC910190F081E02DC6010995892B11F4EA
:100C50007E0102C02196ECCFC701DF91CF911F9199
:100C60000F91FF90EF90DF90CF900895CF93DF9397
:100C7000EC018091950290919602029709F5C1309E
:100C8000D10569F024F42097D9F460E009C0C2309E
:100C9000D10561F0C330D10599F460E008C061E08E
:100CA000809199020E942F0261E006C061E080916C
:100CB00099020E942F0260E080919B020E942F0205
:100CC0008091950290919602049709F03FC0C1303F
:100CD000D105B9F04CF42097C9F561E080919902F3
:100CE0000E942F0260E013C0C230D105D9F0C3309A
:100CF000D10561F561E0809199020E942F0260E0C8
:100D000017C060E0809199020E942F0261E08091FB
:100D10009B020E942F0261E080919D020E942F029F
:100D200060E010C060E0809199020E942F0261E0B3
:100D300080919B020E942F0260E080919D020E94A0
:100D40002F0261E080919F020E942F028091950204
:100D500090919602059709F086C0CA30D10508F037
:100D600082C0FE01EC5CFF4F0C94AB0E60E0809102
:100D700099020E942F0261E061C060E080919902B7
:100D80000E942F0261E080919B020E942F0260E08E
:100D90005AC060E0809199020E942F0261E0809128
:100DA0009B020E942F0260E080919D020E942F0210
:100DB00061E04EC060E001C061E0809199020E9454
:100DC0002F0261E006C061E0809199020E942F022B
:100DD00060E080919B020E942F0260E00BC061E006
:100DE000809199020E942F0260E080919B020E94F4
:100DF0002F0261E080919D020E942F0261E010C0ED
:100E000061E0809199020E942F0260E080919B0234
:100E10000E942F0261E080919D020E942F0260E0FB
:100E200080919F020E942F0260E017C061E001C024
:100E300060E0809199020E942F0260E080919B0205
:100E40000E942F0261E080919D020E942F0260E0CB
:100E500080919F020E942F0261E08091A102DF91A8
:100E6000CF910C942F02DF91CF910895CF92DF9212
:100E7000EF92FF920F931F93CF93DF9300D0CDB7E4
:100E8000DEB78C01F62EFC018289938949835A834F
:100E90000E946F0360E0F80186850E942F0282E1C4
:100EA0000E9468034981E42EC42E5A81D52E8C2DD0
:100EB0008E198F1530F4F60181916F010E9468033D
:100EC000F6CF61E0F80186850E942F020F900F9007
:100ED000DF91CF911F910F91FF90EF90DF90CF9016
:100EE0000C9467034F925F926F927F928F929F92C2
:100EF000AF92BF92CF92DF92EF92FF920F931F9328
:100F0000CF93DF9300D0CDB7DEB74C012B01D42EA9
:100F10003901E114F10419F0F701408101C040E00A
:100F2000B42EF0E1CF9EB00C112440E062E0C40189
:100F30000E9490034FE768E0C4010E94900340E8DC
:100F400064E1C4010E949003A2016D2DC4010E94BE
:100F500036074B2D6AE1C4010E9490034CE062E029
:100F6000C4010E9490036AE1C4010E947203482FE9
:100F700040686AE1C4010E94900380ED482E87E03A
:100F8000582E68E0C4010E947203982F907341F4B8
:100F900080FD04C081E0481A510899F783E0A1C0A0
:100FA0006CE0C4010E947203D82E837109F098C0CE
:100FB0006114710409F45AC00115110509F456C0F1
:100FC00064E1C4010E947203B82EF80180818B1580
:100FD00008F480C0B082BB20F1F1F40182899389CA
:100FE0000E946F0360E0F40186850E942F0282E96F
:100FF0000E946803CC20A1F08FEF90E02C0101C08B
:10100000440CCA94EAF782E90E9468038421409460
:10101000F3019081492284298083CC24C39401C0A8
:10102000C12CBA944C2C512C460C571CCB1438F4C0
:1010300082E90E946803F2018083C394F3CF80E0C9
:101040000E946803F201808361E0F40186850E94BA
:101050002F020E94670368E1C4010E947203877037
:10106000E114F10421F0F701808301C080E0D3FC9A
:1010700033C06114710491F10115110579F1AA20B1
:1010800069F1F8014081413019F4843019F420C02D
:10109000423010F487E025C08111FCCF42509E0100
:1010A0002F5F3F4FB301C4010E941F04811119C07B
:1010B000F8018081680E711CF3013297908189815B
:1010C0009813E8CF319690818A819813E3CF06C0B8
:1010D0008FEF07C084E005C082E003C080E001C05C
:1010E00081E00F900F90DF91CF911F910F91FF90B2
:1010F000EF90DF90CF90BF90AF909F908F907F90B8
:101100006F905F904F900895E8E9F1E0A089B18970
:1011100082E08C93A485B5851C92A685B7858FEC5B
:101120008C93108EA489B58986E08C93A289B389AB
:101130008C9180618C93A289B3898C9188608C9307
:10114000A289B3898C9180688C930288F389E02D01
:1011500080818F7D80830895CF92DF92EF92FF92FE
:101160000F931F932FB7F894C0909401D0909501DE
:10117000E0909601F09097012FBFDC01CB018C0D20
:101180009D1DAE1DBF1D4FB7F894009194011091A5
:10119000950120919601309197014FBF0C151D05C7
:1011A0002E053F0528F080179107A207B30758F7CF
:1011B0001F910F91FF90EF90DF90CF9008954F9285
:1011C0005F926F927F928F929F92AF92BF92EF92B7
:1011D000FF920F931F93CF93DF93EC0197FF04C00F
:1011E000CC27DD27C81BD90B181619063CF481E063
:1011F00090E090938E0280938D0206C0892B21F09F
:1012000010928E0210928D0204E010E08AE0E82E27
:10121000F12C209709F468C00E949B028090A302E1
:101220009090A402A090A502B090A6022B013C01D0
:10123000481859086A087B0880908F0290909002A5
:10124000A0909102B0909202481459046A047B0461
:1012500000F36093A3027093A4028093A50290937D
:10126000A60220918D0230918E028091970290917A
:1012700098022130310589F4019690939802809369
:101280009702209193023091940282179307C1F440
:10129000109298021092970213C0892B41F480910A
:1012A0009302909194029093980280939702809178
:1012B00097029091980201979093980280939702D9
:1012C00021972091950230919602809197029091FA
:1012D00098022530310511F4B70101C0B8010E9410
:1012E000780E0E94360695CFDF91CF911F910F9116
:1012F000FF90EF90BF90AF909F908F907F906F90F6
:101300005F904F9008956115710579F0FB01019090
:101310000020E9F73197AF01461B570BDC01ED9137
:10132000FC910280F381E02D099480E090E0089523
:10133000CF93DF93BC0188E991E00E948309EC011F
:1013400061E471E088E991E00E9483098C0F9D1FA0
:10135000DF91CF910895CF92DF92EF92FF920F939A
:101360001F93E82FF92F05C00150110921093109F8
:1013700061F1908196239417B9F305C001501109CA
:101380002109310911F1908196239413F7CFC12CD3
:10139000D12CE12CF12C0AC08FEFC81AD80AE80A28
:1013A000F80A0C151D052E053F0579F0808186236E
:1013B000841791F36C2D7D2D8E2D9F2D1F910F91F4
:1013C000FF90EF90DF90CF90089560E070E080E0B4
:1013D00090E01F910F91FF90EF90DF90CF900895D4
:1013E000CF93DF93CDB7DEB7A1970FB6F894DEBFEA
:1013F0000FBECDBF789484B5826084BD84B5816012
:1014000084BD85B5826085BD85B5816085BD8091CF
:101410006E00816080936E00109281008091810047
:10142000826080938100809181008160809381003F
:10143000809180008160809380008091B100846001
:101440008093B1008091B00081608093B000809162
:101450007A00846080937A0080917A008260809321
:101460007A0080917A00816080937A0080917A007E
:10147000806880937A001092C100109279021092D5
:101480007A0210927B0210927C0210923702109224
:1014900038021092390210923A0268EB7BE080E049
:1014A00090E00E94AC0888E991E0909378028093E4
:1014B00077020E9484082FB7F8948091940190914C
:1014C0009501A0919601B09197012FBF80933702AB
:1014D00090933802A0933902B0933A0262E371E02C
:1014E00080917702909178020E9483096AE070E00F
:1014F00080E090E00E94AC0881E080934B020E9463
:1015000084081092930110929201209193023091DD
:101510009402032E000C440B550B60E077E883E93E
:1015200093E00E948C0ECA01B9012CE330E040E048
:1015300050E00E948C0E20938F02309390024093D3
:101540009102509392021FB7F894809191018111FA
:1015500027C0E8EBF0E08491ECECF0E09491E82F08
:10156000F0E0EE0FFF1FE656FF4FA591B491EC910E
:10157000E92321F461E08AE00E942F0261E08AE021
:101580000E945F028CB580618CBD8CB580648CBD7F
:1015900061E08DE00E945F0261E08BE00E945F02EB
:1015A000809191018F5F809391011FBF61E08091D5
:1015B000B5020E945F0261E08091B5020E942F0295
:1015C0008091B6028F3FA9F061E00E945F02809196
:1015D000B6020E949A01892B61F461E08091B60203
:1015E0000E942F0262E370E080E090E00E94C0025F
:1015F00013C04FE062E087EA92E00E94900362E34A
:1016000070E080E090E00E94C00262E087EA92E031
:101610000E94720384FDF9CF40E064E287EA92E021
:101620000E94900340E066E287EA92E00E94900305
:1016300046E268E487EA92E00E94900340E864E5AD
:1016400087EA92E00E94900349EA66E587EA92E021
:101650000E94900343E068E587EA92E00E949003CD
:1016600048EE6AE587EA92E00E94900340E46AE26D
:1016700087EA92E00E9490034DE362E287EA92E0FB
:101680000E94900368E287EA92E00E947203982F1A
:101690009370933039F0482F436068E287EA92E014
:1016A0000E94900393E0892E912C23E2A22EB12C6C
:1016B0003AE0432E512C612C712C60E080917D0228
:1016C0000E942F02C4010197F1F761E080917D0231
:1016D0000E942F02C5010197F1F760E080917D0221
:1016E0000E942F0280917F02909180029927FC0135
:1016F000EE53FF4F6491FC01E255FF4FE491F0E09F
:10170000EE0FFF1FEC55FF4F8591949100E412E41A
:101710002FE030E0462F0E94AB096115710581056D
:10172000910549F0DC01CB010196A11DB11DBC0161
:10173000CD019F7003C060E070E0CB010E94FE0C01
:1017400026E933E44BE05DE30E945D0D20E030E0EC
:1017500040E05FE30E945D0D0E943D0E6B017C0145
:1017600064E471E088E991E00E948309F7FE26C0F5
:10177000E0919801F09199010190F081E02D6DE2E6
:1017800088E991E0099522273327A9012C193D0901
:101790004E095F0919A28E010F5D1F4FCA01B901E1
:1017A000A30192010E941B0E605DF80162938F01FC
:1017B000211531054105510589F715C0A70196018D
:1017C00019A28E010F5D1F4FCA01B901A301920139
:1017D0000E941B0E605DF80162938F012115310597
:1017E0004105510589F7B80188E991E00E94830914
:1017F00061E471E088E991E00E94830964EF71E09F
:1018000080E090E00E94C00287EA92E00E94B70365
:10181000182F882321F080E591E00E94980980919B
:101820009301882319F180919201882381F080E04F
:101830000E949A01019789F587E591E00E94980935
:101840000E94FA021092920183E691E024C0C7013F
:10185000B6010E94FE0C20E030E040EA51E40E9414
:10186000730E1816D4F40E94FA0217C0112319F04F
:101870000E940B0312C080E00E949A01892B69F438
:1018800083E791E00E9498090E940B0381E0809316
:1018900092018EE791E00E9498090E9467010DCFA6
:1018A0000F931F93CF93DF93E8E9F1E01382128245
:1018B00088EE93E0A0E0B0E084839583A683B783AD
:1018C00084E091E09183808385EC90E09587848724
:1018D00084EC90E09787868780EC90E0918B808BFA
:1018E00081EC90E0938B828B82EC90E0958B848BE3
:1018F00086EC90E0978B868B118E128E138E148E51
:10190000E5E3F2E0168217821086118612861386AE
:101910001486158616861786108A118A128A138AEB
:10192000148A158AE7EAF2E086E191E091838083E8
:101930008AE0868789E087878BEB92E0918B808BAA
:1019400083E5828B138ACDE8D2E01B861A86198242
:1019500018821E8A1F8A188E198E84EF91E09F8349
:101960008E8304E010E01D870C8786E090E09F875F
:101970008E8785E090E0998B888B87E090E09B8B49
:101980008A8B61E084E00E945F0261E08E850E94A4
:101990005F0261E088890E945F0261E08A890E949B
:1019A0005F021D8A1C8A1987088761E083E00E9414
:1019B0005F0260E082E00E945F02EDE7F2E083E018
:1019C00090E09183808382E090E09383828385E836
:1019D0009CEFACEDB1E484839583A683B7838CE957
:1019E00093E5ACE8B2E480879187A287B387DF9163
:1019F000CF911F910F910895E89409C097FB3EF491
:101A000090958095709561957F4F8F4F9F4F99234B
:101A1000A9F0F92F96E9BB279395F69587957795C9
:101A20006795B795F111F8CFFAF4BB0F11F460FF89
:101A30001BC06F5F7F4F8F4F9F4F16C0882311F0E1
:101A400096E911C0772321F09EE8872F762F05C0F5
:101A5000662371F096E8862F70E060E02AF09A9590
:101A6000660F771F881FDAF7880F9695879597F985
:101A70000895990F0008550FAA0BE0E8FEEF16161F
:101A80001706E807F907C0F012161306E407F50772
:101A900098F0621B730B840B950B39F40A2661F0E6
:101AA000232B242B252B21F408950A2609F4A14089
:101AB000A6958FEF811D811D08950E94700D0C94D5
:101AC000E10D0E94D30D38F00E94DA0D20F095232D
:101AD00011F00C94CA0D0C94D00D11240C94150E19
:101AE0000E94F20D70F3959FC1F3950F50E0551FC2
:101AF000629FF001729FBB27F00DB11D639FAA2763
:101B0000F00DB11DAA1F649F6627B00DA11D661FB1
:101B1000829F2227B00DA11D621F739FB00DA11DD2
:101B2000621F839FA00D611D221F749F3327A00D8C
:101B3000611D231F849F600D211D822F762F6A2F28
:101B400011249F5750409AF0F1F088234AF0EE0F8D
:101B5000FF1FBB1F661F771F881F91505040A9F7BA
:101B60009E3F510580F00C94CA0D0C94150E5F3FFA
:101B7000E4F3983ED4F3869577956795B795F795F6
:101B8000E7959F5FC1F7FE2B880F911D969587956E
:101B900097F9089597F99F6780E870E060E00895ED
:101BA0009FEF80EC089500240A9416161706180675
:101BB0000906089500240A94121613061406050651
:101BC0000895092E0394000C11F4882352F0BB0FE2
:101BD00040F4BF2B11F460FF04C06F5F7F4F8F4F45
:101BE0009F4F089557FD9058440F551F59F05F3F80
:101BF00071F04795880F97FB991F61F09F3F79F02F
:101C000087950895121613061406551FF2CF4695B0
:101C1000F1DF08C0161617061806991FF1CF869532
:101C20007105610508940895E894BB276627772716
:101C3000CB0197F90895A1E21A2EAA1BBB1BFD0147
:101C40000DC0AA1FBB1FEE1FFF1FA217B307E4079B
:101C5000F50720F0A21BB30BE40BF50B661F771FF3
:101C6000881F991F1A9469F76095709580959095D3
:101C70009B01AC01BD01CF0108950E94440E689400
:101C8000B1110C94150E08950E94FA0D88F09F571B
:101C900098F0B92F9927B751B0F0E1F0660F771F90
:101CA000881F991F1AF0BA95C9F714C0B13091F086
:101CB0000E94140EB1E008950C94140E672F782F33
:101CC0008827B85F39F0B93FCCF38695779567954B
:101CD000B395D9F73EF490958095709561957F4FB7
:101CE0008F4F9F4F08950E94390D08F48FEF08958C
:101CF00097FB072E16F4009407D077FD09D00E94B9
:101D0000B10E07FC05D03EF4909581959F4F089544
:101D1000709561957F4F0895052E97FB1EF40094F2
:101D20000E94A30E57FD07D00E941B0E07FC03D094
:101D30004EF40C94A30E50954095309521953F4F4D
:101D40004F4F5F4F089590958095709561957F4FA7
:101D50008F4F9F4F0895EE0FFF1F0590F491E02DD8
:101D60000994AA1BBB1B51E107C0AA1FBB1FA617E2
:101D7000B70710F0A61BB70B881F991F5A95A9F734
:101D800080959095BC01CD01089581E090E0F89494
:081D90000C94CA0EF894FFCF79
:101D980000000000FE000B0696004501C700A500E4
:101DA800B900000000006B04B703C301466563680F
:101DB800616E646F2E2E00416272696E646F2E2E02
:101DC8002E00564D4450565F317C315F564D44507D
:101DD800560D0A0044697374616E6369613A2000A4
:101DE80041636569746F0050696E6F207720486998
:101DF800676800466F726120646520736572766952
:101E0800636F0050696E6F2077204C6F7700456DC7
:0A1E1800207365727669636F0000A5
:00000001FF
